:100000000C9463000C948B000C948B000C948B006C
:100010000C948B000C948B000C948B000C94C30AF2
:100020000C948B000C948B000C948B000C948B0024
:100030000C948B000C948B000C948B000C948B0014
:100040000C94A9030C948B000C949D060C94CF0681
:100050000C948B000C948B000C948B000C948B00F4
:100060000C948B000C948B0000000008000201002F
:100070000003040700000000000000000102040863
:100080001020408001020408102001020408102002
:10009000040404040404040402020202020203032E
:1000A00003030303000000002300260029000000D2
:1000B0000000250028002B0000000000240027007D
:1000C0002A000200FF0611241FBECFEFD8E0DEBFDA
:1000D000CDBF14E0A0E0B1E0E6E2F7E102C0059098
:1000E0000D92A836B107D9F725E0A8E6B4E001C023
:1000F0001D92A838B207E1F710E0C6ECD0E004C0CA
:100100002297FE010E947E0BC43CD107C9F70E94D2
:10011000200B0C94910B0C94000026E040E855E273
:1001200060E070E086ED94E00E943B0648E95AE307
:1001300060E070E086ED94E00C940908CF9367E0EE
:1001400071E086ED94E00E94800741E060E070E09D
:1001500086ED94E00E940F08C62F262F372F2F3FE1
:10016000310509F44FC0243131051CF062E571E01E
:100170004BC02E3031053CF461E08C2F0E94C0044E
:1001800061E08C2F3AC02131310519F13CF42F3058
:10019000310589F020313105A9F006C02231310541
:1001A000F9F02331310519F161E08EE00E94C004BD
:1001B00061E08EE022C061E08FE00E94C00461E057
:1001C0008FE01BC061E080E10E94C00461E080E13B
:1001D00014C061E081E10E94C00461E081E10DC0D2
:1001E00061E082E10E94C00461E082E106C061E05A
:1001F00083E10E94C00461E083E10E94F9046BE2A4
:1002000074E002C061E671E086ED94E0CF910C9459
:100210008607CF9363E771E086ED94E00E94800744
:1002200041E060E070E086ED94E00E940F08C62F88
:10023000262F372F2F3F310509F44FC024313105C8
:100240001CF062E571E04BC02E3031053CF461E0FA
:100250008C2F0E94C00460E08C2F3AC02131310500
:1002600019F13CF42F30310589F020313105A9F026
:1002700006C022313105F9F02331310519F161E071
:100280008EE00E94C00460E08EE022C061E08FE05A
:100290000E94C00460E08FE01BC061E080E10E942A
:1002A000C00460E080E114C061E081E10E94C0040C
:1002B00060E081E10DC061E082E10E94C00460E085
:1002C00082E106C061E083E10E94C00460E083E156
:1002D0000E94F9046BE274E002C061E671E086ED11
:1002E00094E0CF910C94860761EC71E086ED94E088
:1002F0000E94800741E060E070E086ED94E00E949B
:100300000F08862F262F372F2F3F310591F12431EB
:1003100031051CF062E571E02EC02E30310514F479
:1003200060E022C021313105B9F03CF42F303105B5
:1003300069F02031310569F006C02231310579F0CC
:100340002331310579F060E08EE00EC060E08FE08F
:100350000BC060E080E108C060E081E105C060E0C2
:1003600082E102C060E083E10E94C0046BE274E0BD
:1003700002C061E671E086ED94E00C94860766E1C8
:1003800072E086ED94E00E94800741E060E070E05A
:1003900086ED94E00E940F08862F262F372F2F3FDF
:1003A000310591F1243131051CF062E571E02EC078
:1003B0002E30310514F461E022C021313105B9F04D
:1003C0003CF42F30310569F02031310569F006C069
:1003D0002231310579F02331310579F061E08EE089
:1003E0000EC061E08FE00BC061E080E108C061E019
:1003F00081E105C061E082E102C061E083E10E9429
:10040000C0046BE274E002C061E671E086ED94E046
:100410000C9486076CE672E086ED94E00E948007FB
:1004200041E060E070E086ED94E00E940F08611505
:10043000710519F461E671E008C0882777FD8095A1
:10044000982F0E9422046BE274E086ED94E00C94F5
:1004500086078F929F92AF92BF92CF92DF92EF92D8
:10046000FF9267EB72E086ED94E00E94800741E026
:1004700060E070E086ED94E00E940F084B015C01A3
:100480006FEC72E086ED94E00E94800741E060E04E
:1004900070E086ED94E00E940F086B017C0166EE2F
:1004A00072E086ED94E00E948607EE24D7FCE0948B
:1004B000FE2CA7019601B40188E00E947F08C701C5
:1004C000B6010E94220488E00E94AE0A6BE274E04A
:1004D00086ED94E0FF90EF90DF90CF90BF90AF90CB
:1004E0009F908F900C948607CF93C0E086ED94E0A8
:1004F0000E94580518161906CCF786ED94E00E9464
:1005000071058D3049F0EC2FFF27E7FDF095E75995
:10051000FB4F808380E001C081E0CF5F882331F30F
:10052000CF9108951F93CF93DF936DEE72E086ED28
:1005300094E00E94860766E073E086ED94E00E94F6
:10054000800741E060E070E086ED94E00E940F08D3
:10055000162F60E173E086ED94E00E94800741E091
:1005600060E070E086ED94E00E940F08D62F6DE108
:1005700073E086ED94E00E94800741E060E070E067
:1005800086ED94E00E940F08C62F68E273E086EDC6
:1005900094E00E94860763E573E086ED94E00E9494
:1005A000860765E873E086ED94E00E94860765EDB6
:1005B00073E086ED94E00E94860760E082E00E948E
:1005C000C00461E08DE00E94C00461E082E00E940E
:1005D000F90482E00E942F05892BD9F782E00E945E
:1005E0002F05892BD9F361E08DE00E94F904612F7A
:1005F00086ED94E00E94D6056D2F86ED94E00E9472
:10060000D6056C2F86ED94E00E94D60560E08DE063
:100610000E94F90482E00E942F05892BD9F782E01D
:100620000E942F05892BD9F369E274E086ED94E0EE
:10063000DF91CF911F910C94860780E0E82FFF2770
:10064000E7FDF095E759FB4F10828F5F8436B4F3D6
:100650008093680463E374E086ED94E00E94800771
:100660000E94740280916904882309F44EC0833784
:1006700051F480916A04853631F580916B0484379A
:10068000C1F50C949E00833651F480916A048C3637
:1006900081F580916B04823761F50C9409018936EC
:1006A00031F480916A048E3621F50C9474018F36F2
:1006B000D1F480916A048537E1F480916B0484372A
:1006C000C1F40C94BF018F36A1F480916B0485377F
:1006D00081F480916C048E3661F480916D048436CF
:1006E00041F40C942902843621F580916A04853600
:1006F00091F06AE374E086ED94E00E94800769E679
:1007000074E086ED94E00E94800760E771E086ED7A
:1007100094E00C94800780916B048C3651F78091A3
:100720006C04813631F780916D04893711F70C9490
:100730000A028D36F1F680916A048936D1F68091ED
:100740006B048436B1F680916C04893691F60C9472
:1007500092021F920F920FB60F9211242F933F9384
:100760008F939F93AF93BF938091CE049091CF04CA
:10077000A091D004B091D1043091CD0423E0230F97
:100780002D3720F40196A11DB11D05C026E8230FC9
:100790000296A11DB11D2093CD048093CE049093A9
:1007A000CF04A093D004B093D1048091D20490914F
:1007B000D304A091D404B091D5040196A11DB11D1C
:1007C0008093D2049093D304A093D404B093D5041F
:1007D000BF91AF919F918F913F912F910F900FBE3D
:1007E0000F901F9018952FB7F8946091CE047091D8
:1007F000CF048091D0049091D1042FBF08953FB7CA
:10080000F8948091D2049091D304A091D404B09133
:10081000D50426B5A89B05C02F3F19F00196A11D50
:10082000B11D3FBF6627782F892F9A2F620F711D48
:10083000811D911D42E0660F771F881F991F4A9501
:10084000D1F708958F929F92AF92BF92CF92DF928D
:10085000EF92FF926B017C010E94FF034B015C0150
:10086000C114D104E104F104F1F00E942F0B0E94A5
:10087000FF03681979098A099B09683E734081055D
:10088000910570F321E0C21AD108E108F10888EE61
:10089000880E83E0981EA11CB11CC114D104E10490
:1008A000F10429F7DDCFFF90EF90DF90CF90BF905C
:1008B000AF909F908F900895789484B5826084BDA6
:1008C00084B5816084BD85B5826085BD85B5816054
:1008D00085BDEEE6F0E0808181608083E1E8F0E0B4
:1008E0001082808182608083808181608083E0E8E3
:1008F000F0E0808181608083E1EBF0E080818460C2
:100900008083E0EBF0E0808181608083EAE7F0E0C3
:100910008081846080838081826080838081816027
:1009200080838081806880831092C1000895833025
:1009300081F028F4813099F08230A1F00895873059
:10094000A9F08830B9F08430D1F4809180008F7D97
:1009500003C0809180008F7780938000089584B5D4
:100960008F7702C084B58F7D84BD08958091B000DB
:100970008F7703C08091B0008F7D8093B000089581
:10098000CF93DF9390E0FC01E458FF4F2491FC01EA
:10099000E057FF4F8491882349F190E0880F991F19
:1009A000FC01E854FF4FA591B49182559F4FFC0183
:1009B000C591D4919FB7611108C0F8948C9120958E
:1009C00082238C93888182230AC0623051F4F89488
:1009D0008C91322F309583238C938881822B88834E
:1009E00004C0F8948C91822B8C939FBFDF91CF91A0
:1009F00008950F931F93CF93DF931F92CDB7DEB768
:100A0000282F30E0F901E859FF4F8491F901E458AB
:100A1000FF4F1491F901E057FF4F04910023C9F0F3
:100A2000882321F069830E9497046981E02FF0E018
:100A3000EE0FFF1FE255FF4FA591B4919FB7F894B9
:100A40008C91611103C01095812301C0812B8C937F
:100A50009FBF0F90DF91CF911F910F910895CF937A
:100A6000DF93282F30E0F901E859FF4F8491F90115
:100A7000E458FF4FD491F901E057FF4FC491CC23C4
:100A800091F081110E949704EC2FF0E0EE0FFF1F10
:100A9000EC55FF4FA591B4912C912D2381E090E06E
:100AA00021F480E002C080E090E0DF91CF910895D2
:100AB000FC01818D228D90E0805C9F4F821B91090B
:100AC0008F7399270895FC01918D828D981731F0CD
:100AD000828DE80FF11D858D90E008958FEF9FEFD7
:100AE0000895FC01918D828D981761F0828DDF0150
:100AF000A80FB11D5D968C91928D9F5F9F73928F11
:100B000090E008958FEF9FEF089585EF96E0892B91
:100B100049F080E090E0892B29F00E94F5068111D0
:100B20000C9400000895FC01848DDF01A80FB11D15
:100B3000A35ABF4F2C91848D90E001968F73992713
:100B4000848FA689B7892C93A089B1898C91806400
:100B50008C93938D848D981306C00288F389E02DC1
:100B600080818F7D80830895CF93DF93EC01888D02
:100B70008823C9F0EA89FB89808185FD05C0A889A1
:100B8000B9898C9186FD0FC00FB607FCF5CF808127
:100B900085FFF2CFA889B9898C9185FFEDCFCE0171
:100BA0000E949305E7CFDF91CF910895CF92DF9216
:100BB000FF920F931F93CF93DF931F92CDB7DEB7B2
:100BC0006C0181E0D60158968C9358975B969C9166
:100BD0005B975C968C915C97981307C05096ED914B
:100BE000FC915197808185FD2EC0F601038D10E0A8
:100BF0000F5F1F4F0F731127F02EF601848DF8122F
:100C000011C00FB607FCF9CFD6015096ED91FC91BB
:100C10005197808185FFF1CFC60169830E949305BA
:100C20006981EBCF838DE80FF11DE35AFF4F60839D
:100C3000D6015B960C935B975296ED91FC9153977E
:100C4000808180620CC0D6015696ED91FC91579739
:100C500060835096ED91FC915197808180648083F0
:100C600081E090E00F90DF91CF911F910F91FF9065
:100C7000DF90CF900895BF92CF92DF92EF92FF92D4
:100C8000CF93DF93EC016A017B01B22EE889F989E9
:100C900082E08083411581EE580761057105A1F05E
:100CA00060E079E08DE390E0A70196010E94300BAF
:100CB0002150310941095109569547953795279596
:100CC000211580E1380798F0E889F989108260E8F9
:100CD00074E88EE190E0A70196010E94300B21504C
:100CE0003109410951095695479537952795EC8566
:100CF000FD853083EE85FF852083188EEC89FD8984
:100D0000B082EA89FB89808180618083EA89FB89DE
:100D1000808188608083EA89FB8980818068808304
:100D2000EA89FB8980818F7D8083DF91CF91FF905D
:100D3000EF90DF90CF90BF9008951F920F920FB663
:100D40000F9211242F938F939F93EF93FF93E09132
:100D5000E604F091E7048081E091EC04F091ED0469
:100D600082FD12C090818091EF048F5F8F7320917C
:100D7000F004821751F0E091EF04F0E0EA52FB4FEB
:100D8000958F8093EF0401C08081FF91EF919F9137
:100D90008F912F910F900FBE0F901F9018951F925B
:100DA0000F920FB60F9211242F933F934F935F939F
:100DB0006F937F938F939F93AF93BF93EF93FF9323
:100DC00086ED94E00E949305FF91EF91BF91AF9162
:100DD0009F918F917F916F915F914F913F912F9153
:100DE0000F900FBE0F901F90189586ED94E00E9413
:100DF000580521E0892B09F420E0822F08951092F4
:100E0000D9041092D80488EE93E0A0E0B0E080937B
:100E1000DA049093DB04A093DC04B093DD0480E556
:100E200094E09093D7048093D60485EC90E090935F
:100E3000E3048093E20484EC90E09093E5048093D3
:100E4000E40480EC90E09093E7048093E60481EC66
:100E500090E09093E9048093E80482EC90E0909312
:100E6000EB048093EA0486EC90E09093ED04809389
:100E7000EC041092EF041092F0041092F10410921E
:100E8000F2040895CF92DF92EF92FF920F931F9397
:100E9000CF93DF937C016A01EB0100E010E00C15B9
:100EA0001D0571F06991D701ED91FC910190F081E0
:100EB000E02DC7010995892B19F00F5F1F4FEFCF68
:100EC000C801DF91CF911F910F91FF90EF90DF90BC
:100ED000CF9008956115710581F0DB010D90002020
:100EE000E9F7AD0141505109461B570BDC01ED916B
:100EF000FC910280F381E02D099480E090E0089558
:100F00000C946A0760E771E00C946A070F931F93D3
:100F1000CF93DF93EC010E946A078C01CE010E94FF
:100F20008207800F911FDF91CF911F910F9108953C
:100F30000F931F93CF93DF93EC010E94F303688715
:100F400079878A879B87E881F9810084F185E02D84
:100F5000CE01099597FF15C00E94F30308851985F6
:100F60002A853B85601B710B820B930B0C811D81C5
:100F70002E813F81601771078207930720F38FEF5F
:100F80009FEFDF91CF911F910F910895FF920F93E3
:100F90001F93CF93DF93EC018B01F42ECE010E94BF
:100FA00098079C0197FD28C08D32910519F1C097D3
:100FB0000A9710F1FF2019F02E323105F9F00130B7
:100FC0001105F9F00230110569F42D30310551F0A9
:100FD00034F4295031092230310520F012C020327A
:100FE000310579F4E881F9810680F781E02DCE01A1
:100FF0000995D4CF8DE203C0C90105C08EE290E00F
:1010000002C08FEF9FEFDF91CF911F910F91FF9063
:101010000895FC0144835583668377830895CF92B6
:10102000DF92FF920F931F93CF93DF9300D000D0F6
:10103000CDB7DEB76C01042F40E00E94C607FC016B
:1010400097FD4BC020E030E0A901F12C112707FDEE
:101050001095E017F107E9F0ED32F105C1F0CF018D
:10106000C0970A97B0F4AAE0B0E00E94710B9B0110
:10107000AC01CF01AA2797FDA095BA2F280F391FE1
:101080004A1F5B1F205331094109510902C0FF2447
:10109000F394D601ED91FC910680F781E02DC60115
:1010A00029833A834B835C830995C6010E94980784
:1010B000FC01C09729813A814B815C810A9748F2F3
:1010C000E017F10731F2FF2061F066277727CB01A7
:1010D000621B730B840B950B06C060E070E0CB01C4
:1010E00002C0CA01B9010F900F900F900F90DF91CD
:1010F000CF911F910F91FF90DF90CF9008953F9275
:101100004F925F926F927F928F929F92AF92BF9217
:10111000CF92DF92EF92FF920F931F93CF93DF93C3
:1011200000D000D0CDB7DEB78B0129013A019091F4
:101130000601981721F09F3F09F0DAC104C0E2ECE4
:10114000F0E0349081C080930601E2ECF0E0E4919D
:10115000EF3F09F4CDC1E13031F1E23009F44BC089
:10116000E11171C014BC15BC94B5926094BD95B5E5
:10117000916095BD282F30E0F901E057FF4FE491D1
:10118000F0E0EE0FFF1FE255FF4F45915491509351
:10119000830540938205F901E458FF4F2491209381
:1011A0008105312C53C010928000109281009091E3
:1011B000810098609093810090918100916090935C
:1011C0008100282F30E0F901E057FF4FE491F0E073
:1011D000EE0FFF1FE255FF4F4591549150937C0550
:1011E00040937B05F901E458FF4F249120937A0541
:1011F000332433942BC01092B0001092B100909120
:10120000B00092609093B0009091B1009160909383
:10121000B100282F30E0F901E057FF4FE491F0E0F2
:10122000EE0FFF1FE255FF4F459154915093750506
:1012300040937405F901E458FF4F249120937305FE
:1012400052E0352E03C03E2E37FC52C161E00E94B1
:10125000C0044801A12CB12C832D8D7F09F0C7C09B
:1012600060E072E18AE790E0A50194010E94520BD0
:1012700029833A834B835C8369017A0181E0C81A30
:10128000D108E108F1089FEFC916D104E104F10487
:1012900009F008F49AC060E472E48FE090E0A501E0
:1012A00094010E94520B69017A01E1E0CE1AD10843
:1012B000E108F108F2E03F1219C08FEFC816D1041F
:1012C000E104F10409F008F48AC060E970ED83E0FC
:1012D00090E0A50194010E94520B69017A0191E00E
:1012E000C91AD108E108F10883E001C082E0EFEFFC
:1012F000CE16D104E104F10409F008F467C068E4F3
:1013000078EE81E090E0A50194010E94520B690102
:101310007A01F1E0CF1AD108E108F1083320E1F0B9
:1013200082E038121BC09FEFC916D104E104F1041A
:1013300009F008F4DBC064E274EF80E090E0A501FE
:1013400094010E94520B69017A01E1E0CE1AD108A2
:10135000E108F10885E003C083E001C084E0FFEF0D
:10136000CF16D104E104F10489F180F162E17AE75A
:1013700080E090E0A50194010E94520B69017A017E
:1013800081E0C81AD108E108F108311002C084E0F8
:1013900001C086E09FEFC916D104E104F104B1F069
:1013A000A8F0C980DA80EB80FC809AE0F594E7949D
:1013B000D794C7949A95D1F7E1E0CE1AD108E10805
:1013C000F108332031F087E00BC081E0332011F0C9
:1013D00007C085E095B5987F982B95BD38C082E011
:1013E0009091B100987F982B9093B10030C060E04D
:1013F00072E18AE790E0A50194010E94520B690115
:101400007A01F1E0CF1AD108E108F108C114D10442
:1014100081E0E806F10488F068E478EE81E090E08D
:10142000A50194010E94520B69017A0191E0C91A49
:10143000D108E108F10893E001C091E0E1E03E123B
:1014400006C080918100887F892B809381004114A0
:1014500051046104710471F0D801AA0FBB1FA301EC
:1014600092010E94710B28EE33E040E050E00E94B0
:10147000300B03C02FEF3FEFA901F1E03F16A1F0C1
:1014800082E0381619F1311033C0C7BC20938405AF
:1014900030938505409386055093870580916E00B3
:1014A000826080936E0024C0D0928900C092880030
:1014B00020937D0530937E0540937F0550938005F2
:1014C00080916F00826080936F0012C0C092B30061
:1014D00020937605309377054093780550937905EE
:1014E0008091700082608093700002C084E078CFA9
:1014F0000F900F900F900F90DF91CF911F910F9150
:10150000FF90EF90DF90CF90BF90AF909F908F9023
:101510007F906F905F904F903F900895813039F0A9
:1015200018F0823051F0089510926E000895809165
:101530006F008D7F80936F000895809170008D7F84
:101540008093700081E08093B0008091B100887F2B
:1015500084608093B1001092B3000895CF93C82F98
:10156000809106018C1307C0E2ECF0E084919FEFBC
:101570009093060101C08FEF0E948E0A60E08C2FCD
:10158000CF910C94F9041F920F920FB60F92112471
:101590002F933F934F935F936F937F938F939F937B
:1015A000AF93BF93EF93FF9380917605909177056A
:1015B000A0917805B0917905892B8A2B8B2B51F15D
:1015C00090917305E0917405F091750580818927EC
:1015D00080838091760590917705A0917805B091F0
:1015E0007905181619061A061B06C4F480917605AB
:1015F00090917705A0917805B09179050197A1099F
:10160000B1098093760590937705A0937805B09300
:10161000790504C0809106010E94AE0AFF91EF9106
:10162000BF91AF919F918F917F916F915F914F91FA
:101630003F912F910F900FBE0F901F901895089516
:101640000E945C040E941F0B0E948D00C5E8D5E03B
:101650000E941D032097E1F30E948505F9CF0895AC
:10166000A1E21A2EAA1BBB1BFD010DC0AA1FBB1FA6
:10167000EE1FFF1FA217B307E407F50720F0A21B18
:10168000B30BE40BF50B661F771F881F991F1A9485
:1016900069F760957095809590959B01AC01BD01AF
:1016A000CF010895052E97FB1EF400940E94690B4C
:1016B00057FD07D00E94300B07FC03D04EF40C946A
:1016C000690B50954095309521953F4F4F4F5F4F97
:1016D000089590958095709561957F4F8F4F9F4F9E
:1016E00008950E94820BA59F900DB49F900DA49F1A
:1016F000800D911D11240895EE0FFF1F0590F491A8
:10170000E02D0994A29FB001B39FC001A39F700D6B
:10171000811D1124911DB29F700D811D1124911DF9
:061720000895F894FFCFCC
:10172600000088058000FF57686963682070696E4D
:1017360020646F20796F752077616E7420746F2036
:101746007365743F20287479706520696E20323580
:1017560035206F72207761697420666F722031358B
:10176600207365636F6E647320746F206578697487
:101776002900496E76616C69642070696E210D0AD4
:101786000050726F6772616D2065786974656421B7
:101796000D0A0057686963682070696E20646F20BF
:1017A600796F752077616E7420746F20636C656144
:1017B600723F20287479706520696E203235352095
:1017C6006F72207761697420666F722031352073DD
:1017D60065636F6E647320746F2065786974292061
:1017E6000057686963682070696E20646F20796F9E
:1017F600752077616E7420746F2073657420617331
:1018060020696E7075743F20287479706520696E42
:1018160020323535206F72207761697420666F72C9
:10182600203135207365636F6E647320746F206595
:1018360078697429200057686963682070696E208A
:10184600646F20796F752077616E7420746F2073D2
:101856006574206173206F75747075743F202874E9
:1018660079706520696E20323535206F7220776178
:10187600697420666F72203135207365636F6E64FC
:101886007320746F2065786974292000486F77206B
:101896006C6F6E6720646F20796F752077616E7448
:1018A60020746F2064656C61793F202874797065B7
:1018B60020696E2030206F72207761697420666F10
:1018C60072203135207365636F6E647320746F20E8
:1018D600657869742920005479706520696E2074D2
:1018E6006865206672657175656E63793A20005485
:1018F60079706520696E20746865206475726174FC
:10190600696F6E3A2000456E6A6F792100202A2A97
:101916002A204D49444920434F4D4D414E4445529E
:10192600202A2A2A2000436F6D6D616E643F2000D5
:1019360050697463682F6E6F74653F200056656C3E
:101946006F636974793F2000506C65617365206828
:101956006F6F6B207570207468652073797374657A
:101966006D20746F2061204D4944492073796E744F
:10197600682E0050726573732074686520627574F2
:10198600746F6E206F6E207468652073797374654A
:101996006D207768656E20796F7527726520726590
:1019A6006164792E00506C6561736520646F206EEA
:1019B6006F7420646973636F6E6E656374207468F8
:1019C600652073797374656D206F7574206F66205A
:1019D600746865204D4944492073796E7468207592
:1019E6006E74696C20746865204C454420697320C8
:1019F6006F66662E005768656E20746865204C45D4
:101A060044206973206F66662C20636F6E6E656373
:101A160074207468652073797374656D20746F2003
:101A2600746865207465726D696E616C20616E64A0
:101A36002070726573732074686520627574746FA4
:101A46006E20616761696E2E000D0A446F6E652116
:101A56000D0A0050494C4F543E00556E6B6E6F7721
:101A66006E20636F6D6D616E643A200000000000A9
:101A7600D6054207580571056305B4056E616E000B
:081A8600696E66006F766600D0
:00000001FF
